:100000000C9474000C949C000C949C000C949C0028
:100010000C949C000C949C000C949C000C949C00F0
:100020000C949C000C949C000C949C000C949C00E0
:100030000C949C000C949C000C949C000C949C00D0
:100040000C949C000C949C000C9409060C949C004D
:100050000C94D7050C94B1050C949C000C949C0056
:100060000C949C000C949C000C944F060C949C00E7
:100070000C949C000C949C000C949C0000002200AA
:10008000250028002B0002020202020202020404E0
:10009000040404040404030303030303030301012E
:1000A0000101010101010102040810204080010248
:1000B0000408102040800102040810204080804085
:1000C00020100804020100000001000000000000F0
:1000D0000000040300060000000000000000000013
:1000E0000000000000006E0711241FBECFEFD0E11A
:1000F000DEBFCDBF13E0A0E0B1E0EEEBFCE102C05B
:1001000005900D92AC3DB107D9F725E0ACEDB3E019
:1001100001C01D92AA38B207E1F710E0C4E7D0E0B1
:1001200004C02197FE010E94700BC337D107C9F7A5
:100130000E94A7070C945D0E0C940000089508958A
:10014000AF92BF92CF92DF92EF92FF920F931F93E5
:10015000CF93DF936C017B018B01040F151FEB0123
:100160005E01AE18BF08C017D10759F06991D601DA
:10017000ED91FC910190F081E02DC6010995892B4C
:1001800079F7C501DF91CF911F910F91FF90EF900B
:10019000DF90CF90BF90AF900895FC01538D448DB8
:1001A000252F30E0842F90E0821B930B541710F022
:1001B000CF96089501970895FC01918D828D98172F
:1001C00061F0A28DAE0FBF2FB11D5D968C91928D07
:1001D0009F5F9F73928F90E008958FEF9FEF089538
:1001E000FC01918D828D981731F0828DE80FF11D01
:1001F000858D90E008958FEF9FEF0895FC01918D1C
:10020000228D892F90E0805C9F4F821B91098F7314
:100210009927089581ED94E00E94FE0021E0892B4A
:1002200009F420E0822F0895FC01A48DA80FB92FB6
:10023000B11DA35ABF4F2C91848D90E001968F730E
:100240009927848FA689B7892C93A089B1898C912D
:10025000837080648C93938D848D981306C002887C
:10026000F389E02D80818F7D80830895EF92FF9246
:100270000F931F93CF93DF93EC0181E0888F9B8DC9
:100280008C8D98131AC0E889F989808185FF15C083
:100290009FB7F894EE89FF896083E889F9898081A6
:1002A0008370806480839FBF81E090E0DF91CF9175
:1002B0001F910F91FF90EF900895F62E0B8D10E097
:1002C0000F5F1F4F0F731127E02E8C8D8E110CC006
:1002D0000FB607FCFACFE889F989808185FFF5CF51
:1002E000CE010E941401F1CFEB8DEC0FFD2FF11D1B
:1002F000E35AFF4FF0829FB7F8940B8FEA89FB898E
:1003000080818062CFCFCF93DF93EC01888D8823EB
:10031000B9F0AA89BB89E889F9898C9185FD03C068
:10032000808186FD0DC00FB607FCF7CF8C9185FF4D
:10033000F2CF808185FFEDCFCE010E941401E9CF7D
:10034000DF91CF91089580E090E0892B29F00E9401
:100350000A0181110E94000080E090E0892B49F0A1
:1003600080E090E0892B29F00E94000081110C941C
:100370000000089590E0FC01EA53FF4F2491FC0136
:10038000EA55FF4F3491FC01EA57FF4FE491EE2309
:10039000C9F0222339F0233001F1A8F4213019F1FA
:1003A000223029F1F0E0EE0FFF1FE458FF4FA59136
:1003B000B4918FB7F894EC91611126C030953E232B
:1003C0003C938FBF08952730A9F02830C9F024301E
:1003D00049F7809180008F7D03C0809180008F77E6
:1003E00080938000DFCF84B58F7784BDDBCF84B569
:1003F0008F7DFBCF8091B0008F778093B000D2CFFC
:100400008091B0008F7DF9CF3E2BDACF9FB7F89463
:10041000409125045091260460912704709128048E
:1004200086B5A89B06C08F3F21F04F5F5F4F6F4F8F
:100430007F4F9FBF2227342F452F562F280F311D66
:10044000411D511DA3E0B0E00E94650B089520916D
:10045000FD03260F3327331F21323105ECF42091A1
:10046000A704FC0190E080E0243069F082E0089568
:10047000A091FD032191AC0143525C4FA40FB52F15
:10048000B11D2C930196861798F38091FD03680F98
:100490006093FD0380E0089581E008951092A70421
:1004A00081E08093A6041092810461E081E10E94C2
:1004B000BA0161E080E10E94BA01E9EBF0E08081DD
:1004C0008E7F808380818D7F808384E58093B800D8
:1004D00085E48093BC000895CF93DF9391E09093DF
:1004E000DC038823B9F0C091B800D091BA008091A4
:1004F000BC008A7B8093BC0060E081E10E94BA016D
:1005000060E080E10E94BA010E944E02D093BA00DE
:10051000C093B800DF91CF9108958F929F92AF92D0
:10052000BF92CF92DF92EF92FF920F931F93CF93E0
:10053000DF93D091D004D13208F0D7C0182FC091EA
:10054000CF040E9406026B017C018091A7048111F7
:100550006BC082E08093A7041093A6048FEF809372
:10056000A5041092A404D093A304AFEAB4E0E3E896
:10057000F4E080E0D81391C010928204809182044C
:10058000CC0FC82BC093820480918104813009F084
:1005900088C0109281040E9406026B017C01809148
:1005A00082048093BB008091A9049091AA04A09139
:1005B000AB04B091AC04892B8A2B8B2BA1F00E9449
:1005C00006020091A9041091AA042091AB04309175
:1005D000AC046C197D098E099F09061717072807B7
:1005E000390708F442C08091BC0083FDD8CF85EC68
:1005F0008093BC000E9406026B017C018091A704DD
:10060000823009F450C08091A5048F3F09F46FC077
:100610008091A504803209F46CC08091A5048033D8
:1006200009F469C084E026C08091A9049091AA04CD
:10063000A091AB04B091AC04892B8A2B8B2B09F4CD
:1006400084CF0E9406028090A9049090AA04A090F2
:10065000AB04B090AC046C197D098E099F09861615
:100660009706A806B90608F070CF8091A8040E94EA
:100670006C0285E01092AE041092D0041092AD048A
:10068000DF91CF911F910F91FF90EF90DF90CF906E
:10069000BF90AF909F908F9008959D9191938F5FA1
:1006A00069CF85EEA5CF8091A9049091AA04A0916D
:1006B000AB04B091AC04892B8A2B8B2B09F49ECF11
:1006C0000E9406020091A9041091AA042091AB0493
:1006D0003091AC046C197D098E099F090617170724
:1006E0002807390708F08ACFC0CF81E0C3CF80E068
:1006F000C1CF82E0BFCF83E0BDCFCF92DF92EF9238
:10070000FF920F931F93CF93C82F813208F096C0AA
:100710000E9406026B017C018091A704811169C0CF
:1007200081E08093A7048093A6049FEF9093A50493
:100730001092A4049C0F9093A30480938204809150
:100740008204806D8093820480918104813009F05D
:1007500077C0109281040E9406026B017C01809197
:1007600082048093BB008091A9049091AA04A09177
:10077000AB04B091AC04892B8A2B8B2BA1F00E9487
:1007800006020091A9041091AA042091AB043091B3
:10079000AC046C197D098E099F09061717072807F5
:1007A000390708F447C08091BC0083FDD8CF85ECA1
:1007B0008093BC000E9406026B017C018091A7041B
:1007C000813009F43FC08091A4048C1710F4C091CB
:1007D000A404A3E8B4E0E1E6F4E080E08C1354C0A4
:1007E0008C2FCF911F910F91FF90EF90DF90CF90C2
:1007F00008958091A9049091AA04A091AB04B091AE
:10080000AC04892B8A2B8B2B09F486CF0E9406021D
:100810000091A9041091AA042091AB043091AC047A
:100820006C197D098E099F090617170728073907D4
:1008300008F072CF8091A8040E946C02C0E0D0CF73
:1008400085EEB6CF8091A9049091AA04A091AB0443
:10085000B091AC04892B8A2B8B2B09F4AFCF0E946B
:1008600006020091A9041091AA042091AB043091D2
:10087000AC046C197D098E099F0906171707280714
:10088000390708F09BCFD6CF9D9191938F5FA6CF6C
:100890000895E091600480915F04E81730F4F0E07F
:1008A000EF59FB4F808190E008958FEF9FEF0895FF
:1008B0009091600480915F042FEF3FEF981748F408
:1008C000E92FF0E0EF59FB4F208130E09F5F9093DC
:1008D0006004C901089580915F0490916004891BB0
:1008E000990B0895CF92DF92EF92FF920F931F938F
:1008F000CF93DF937C01CB018A012091AD042223A9
:1009000089F0EB016B01C40ED51ECC15DD0569F035
:100910006991D701ED91FC910190F081E02DC70123
:100920000995F3CF642F0E942702C801DF91CF9170
:100930001F910F91FF90EF90DF90CF900895CF938C
:10094000DF931F92CDB7DEB769832091AD042223D8
:10095000F9F02091D004203258F021E030E0FC0181
:100960003383228390E080E00F90DF91CF91089550
:100970008091AE04E82FF0E0E155FB4F9981908320
:100980008F5F8093AE048093D00481E090E0ECCF41
:1009900061E0CE0101960E942702F7CFCF93C82FC6
:1009A00081E08093AD0488E68093CF041092AE047A
:1009B0001092D0046C2F8EE695E00E949F04EC2FDD
:1009C000F0E0E658FA4F60858EE695E00E949F04BD
:1009D00081E0CF910C948D0290E080E00895CF9358
:1009E000DF93C82F81E08093AD0488E68093CF0425
:1009F0001092AE041092D0046C2F8EE695E00E9407
:100A00009F0481E00E948D02D82F811112C081E0E5
:100A10000E947D031092600480935F04813069F42A
:100A20008EE695E00E945804EC2FF0E0E658FA4F6D
:100A300080878D2FDF91CF910895D4E0FACFFC010C
:100A400001900020E9F73197AF01481B590BBC0119
:100A500081ED94E00C94A0000F931F93CF93DF934C
:100A6000CDB7DEB7A1970FB6F894DEBF0FBECDBFEE
:100A7000482F50E070E060E019A2CE0181968A0113
:100A80009B010F7011272227332724E07695679565
:100A9000579547952A95D1F70A30C4F4005DFC01BB
:100AA0000293CF01411551056105710541F7EF2B07
:100AB00079F00E941F05A1960FB6F894DEBF0FBE15
:100AC000CDBFDF91CF911F910F910895095CE7CFC2
:100AD00090E080E0F0CFCF93DF930E941F05EC0100
:100AE00084E291E00E941F058C0F9D1FDF91CF9142
:100AF000089585ED8093BC008091A9049091AA048B
:100B0000A091AB04B091AC040796A11DB11D23E0E8
:100B1000B695A795979587952A95D1F72091BC0012
:100B200024FD03C01092A70408954091A904509198
:100B3000AA046091AB047091AC04452B462B472B63
:100B400069F30097A105B10541F02DE32A95F1F76E
:100B500000C00197A109B109E1CF8091A8040C94CC
:100B60006C021F920F920FB60F9211242F933F9396
:100B70004F935F936F937F938F939F93AF93BF93A5
:100B8000EF93FF9381ED94E00E941401FF91EF91A8
:100B9000BF91AF919F918F917F916F915F914F9195
:100BA0003F912F910F900FBE0F901F9018951F929D
:100BB0000F920FB60F9211242F938F939F93EF9361
:100BC000FF93E091E104F091E2048081E091E70479
:100BD000F091E80482FD1BC090818091EA048F5F50
:100BE0008F732091EB04821741F0E091EA04F0E06A
:100BF000EF52FB4F958F8093EA04FF91EF919F9105
:100C00008F912F910F900FBE0F901F90189580819C
:100C1000F4CF1F920F920FB60F9211242F933F9390
:100C20008F939F93AF93BF9380912104909122045F
:100C3000A0912304B09124043091200421E7230FD4
:100C40002D3728F024EF230F0196A11DB11D20930D
:100C500020048093210490932204A0932304B09352
:100C600024048091250490912604A0912704B0913A
:100C700028040196A11DB11D80932504909326049C
:100C8000A0932704B0932804BF91AF919F918F91B7
:100C90003F912F910F900FBE0F901F9018951F92AC
:100CA0000F920FB60F9211242F933F934F935F93A0
:100CB0006F937F938F939F93AF93BF93EF93FF9324
:100CC0008091B900887F803609F44AC0F0F58832F7
:100CD00009F4A7C018F5803109F49BC0B8F4882343
:100CE00009F4F9C0883009F494C0FF91EF91BF91E5
:100CF000AF919F918F917F916F915F914F913F91B4
:100D00002F910F900FBE0F901F901895883109F406
:100D100088C0803251F78093A50414C0803409F450
:100D20009DC040F48033B9F38833F9F68093A5046D
:100D300085ECB0C0803509F485C0883509F496C0CB
:100D4000883499F60E947905D0CF883909F48CC08F
:100D500038F5883729F050F4883611F0803729F6B5
:100D600083E08093A70410921F0457C0883809F4C9
:100D70007BC0803919F0803809F0B7CF80911F040B
:100D8000803208F071C0E0911F0481E08E0F8093E3
:100D90001F048091BB00F0E0E150FC4F80833DC018
:100DA000803B39F0E0F4803A09F479C0883A09F0E0
:100DB0009CCF84E08093A7041092FE031092FD0361
:100DC000E0912B04F0912C0409958091FD03811191
:100DD0000FC081E08093FD031092DD0309C0803CC9
:100DE00009F4A6CF883C09F4A3CF883B09F07DCF56
:100DF000E091FE0381E08E0F8093FE03F0E0E3526A
:100E0000FC4F80818093BB009091FE038091FD0395
:100E100029C0809182048093BB0085EC8093BC0044
:100E200064CF9091A4048091A304981758F5E091A1
:100E3000A40481E08E0F8093A404F0E0ED57FB4FF3
:100E40008081E9CFE091A40481E08E0F8093A40417
:100E50008091BB00F0E0ED57FB4F80839091A4049C
:100E60008091A3049817C8F285E8D8CFE091A40434
:100E700081E08E0F8093A4048091BB00F0E0ED57D9
:100E8000FB4F80838091A60481115CCF81E0809329
:100E9000810484EA8093BC001092A70426CF85ECDD
:100EA0008093BC001092A70480911F04803230F41C
:100EB000E0911F04F0E0E150FC4F108260911F04AC
:100EC00070E0E0912904F0912A048FEF93E00995F6
:100ED00010921F040ACF1092A50434CFE1EDF4E084
:100EE0001382128288EE93E0A0E0B0E084839583C1
:100EF000A683B78324E031E03183208325EC30E002
:100F00003587248724EC30E03787268720EC30E0D3
:100F1000318B208B21EC30E0338B228B22EC30E0C4
:100F2000358B248B26EC30E0378B268B118E128E7E
:100F3000138E148EEEE6F5E013821282848395837D
:100F4000A683B78386E191E09183808308957894A6
:100F500084B5826084BD84B5816084BD85B58260BE
:100F600085BD85B5816085BD80916E00816080936F
:100F70006E001092810080918100826080938100D8
:100F800080918100816080938100809180008160E8
:100F9000809380008091B10084608093B100809143
:100FA000B00081608093B00080917A00846080936B
:100FB0007A0080917A00826080937A0080917A0032
:100FC000816080937A0080917A00806880937A00B3
:100FD0001092C100E091E104F091E20482E080838C
:100FE000E091DD04F091DE041082E091DF04F091E5
:100FF000E00483E180831092E904E091E504F0913C
:10100000E60486E08083E091E304F091E4048081CB
:1010100080618083E091E304F091E4048081886042
:101020008083E091E304F091E40480818068808310
:10103000E091E304F091E40480818F7D808310923D
:10104000600410925F041092AE041092D0040E94CB
:101050004E028EE990E090932C0480932B048FE94C
:1010600090E090932A048093290468E6362E77E76F
:10107000E72E73E0F72EEDE2CE2EE4E0DE2ECAE09E
:10108000F9E8AF2EF5E0BF2E80E00E94EF04811159
:1010900004C08091820587FF02C187E291E00E942F
:1010A0006B0587E391E00E941F0581E08093AD040A
:1010B0003092CF041092AE041092D00460E08EE61D
:1010C00095E00E949F0481E00E948D02D82F81113B
:1010D000E4C288E00E947D031092600480935F0464
:1010E000883009F05EC002E815E08EE695E00E94C7
:1010F0005804F80181938F01F5E00A381F07A9F71A
:1011000080918205982F929597708F709C9F800D8B
:10111000112480937A0580918305982F929597707A
:101120008F709C9F800D112480937B058091840596
:10113000982F929593708F709C9F800D11248093AF
:101140007C0580918505982F92959F708F709C9F4C
:10115000800D112480937D0580918605982F9295AE
:101160009F708F709C9F800D112480937E058091CD
:101170008705982F92959F708F709C9F800D1124EA
:1011800080937F0580918805982F92959F708F702E
:101190009C9F800D11248093800580918905809308
:1011A0008105809181051F928F9380917D051F920B
:1011B0008F9380917A051F928F9380917B051F9268
:1011C0008F9380917C051F928F9380917E051F9253
:1011D0008F9380917F051F928F938091800590E07F
:1011E0008053984F9F938F93FF92EF92DF92CF920D
:1011F0000E94850B8DE294E00E946B058DB79EB72F
:1012000044960FB6F8949EBF0FBE8DBF86E291E064
:101210000E946B058EE791E00E946B058EE891E0DD
:101220000E946B058DE991E00E946B058FEA91E0C9
:101230000E946B058EEB91E00E946B058CEC91E0B7
:101240000E946B0586E291E00E946B0587EE91E0BB
:101250000E946B0581ED94E00E94FE00892BD1F382
:101260008BEF91E00E946B0581ED94E00E94DC0021
:1012700099278435910509F46CC00CF041C086347F
:10128000910509F44AC0F4F48334910509F4C2C10C
:1012900081ED94E00E9483010E94A301F5CE81E0DC
:1012A0000E94EF04811104C08091830587FF07C06D
:1012B00080E491E00E946B0582E791E0F4CE82E643
:1012C00091E0F8CF8035910509F45BC18335910534
:1012D000F9F6809182058F778093820580E00E94E5
:1012E000CE04D82F84E292E0DD2391F20E941F0504
:1012F0008D2F0E942C0580E691E00E946B05C8CFDF
:101300008037910509F43DC1ECF48336910509F469
:1013100081C18636910509F0BBCF81E00E94EF04C0
:10132000D82F81110CC0809183058F77809383051E
:1013300081E00E94CE04D82F882309F4A9CF83E747
:1013400092E0D4CF8337910521F28437910509F0DB
:101350009FCF81EA92E00E946B0586ED92E00E94A9
:101360006B0581ED94E00E94FE004697D4F381ED79
:1013700094E00E94DC0081ED94E00E94DC0081EDAD
:1013800094E00E94DC00D82F81ED94E00E94DC0004
:101390008051782EDC9F700C112481ED94E00E9426
:1013A000DC0081ED94E00E94DC00D82F81ED94E018
:1013B0000E94DC008051DC9F800D1124D82F81ED2C
:1013C00094E00E94DC0081ED94E00E94DC00182F84
:1013D00081ED94E00E94DC008051982E1C9F900CBF
:1013E000112481ED94E00E94DC0081ED94E00E94E4
:1013F000DC00182F81ED94E00E94DC008051682E03
:101400001C9F600C112481ED94E00E94DC0081EDB2
:1014100094E00E94DC00182F81ED94E00E94DC0033
:101420008051582E1C9F500C112481ED94E00E9495
:10143000DC0081ED94E00E94DC00182F81ED94E047
:101440000E94DC008051482E1C9F400C112481ED2D
:1014500094E00E94DC0081ED94E00E94DC008C01AD
:1014600081ED94E00E94DC0011270735110509F495
:10147000BCC00CF0A5C00D34110509F4ACC00CF0D3
:101480008FC00634110509F4BCC081ED94E00E94C0
:101490008301842D8C3308F08BE36C2F0E94590B51
:1014A0008295807F890F909182059078892B809317
:1014B0008205852D8C3308F08BE36C2F0E94590B2D
:1014C0008295807F980F90938305862D883108F050
:1014D00087E16C2F0E94590B8295807F980F909323
:1014E00084058092850581E0992021F0892D803244
:1014F00008F08FE16C2F0E94590B8295807F980F26
:101500009093860581E0DD2321F08D2FDD3008F0FA
:101510008CE06C2F0E94590B8295807F980F9093DE
:101520008705872D843608F083E66C2F0E94590BBF
:101530008295807F980F9093880581E08093AD0419
:101540003092CF041092AE041092D00460E08EE688
:1015500095E00E949F0402E815E0F80161918F0177
:101560008EE695E00E949F04A016B106B1F781E0D7
:101570000E948D02D82F8EEE92E0DD2309F488CEF2
:10158000B5CE8091820580688093820580E00E94BC
:10159000CE04D82F8CE492E0DD2309F479CEA6CED8
:1015A0000335110529F10435110509F06ECF8F7D42
:1015B000853569F1883409F068CF85E0882E65CFDC
:1015C00003371105A9F054F406361105D1F00D3694
:1015D000110509F05ACF32E0832E57CF0437110599
:1015E00031F30737110509F050CF54E0852E4DCF68
:1015F0008F7D853549F0813409F047CF27E0822E71
:1016000044CF46E0842E41CF882483943ECF93E09C
:10161000892E3BCF85E193E00E946B0581ED94E03C
:101620000E94FE000297D4F381ED94E00E94DC005A
:10163000D0EDD80FDA3060F09FEB980FD9EC9630F0
:1016400030F09FE9980FD0E0963010F4D9EAD80F27
:1016500081ED94E00E94DC0090ED980F9A3030F01C
:101660009FEB980F963088F499EC980FD295D07F25
:10167000D90FD093890587E00E94CE04D82F882304
:1016800009F406CE83E493E031CE9FE9980F9630BB
:1016900010F499EAEACF90E0E9CF8CEA93E00E9457
:1016A0001F058D2F0E942C0580E691E00E946B059E
:1016B000ADCD991B79E004C0991F961708F0961BD1
:1016C000881F7A95C9F7809508950E94760BA59F8B
:1016D000900DB49F900DA49F800D911D112408952D
:1016E000EE0FFF1F0590F491E02D0994A29FB00129
:1016F000B39FC001A39F700D811D1124911DB29F46
:10170000700D811D1124911D0895AEE0B0E0EBE84D
:10171000FBE00C94340E0D891E8986E08C831A83BD
:1017200009838FEF9FE79E838D83AE01475E5F4FF6
:101730006F89788DCE0101960E94A80B2F81388584
:10174000020F131FF80110822E96E4E00C94500E45
:10175000ABE0B0E0EEEAFBE00C94260E7C013B012E
:101760008A01FC0117821682838181FFC8C1CE01E4
:1017700001965C01F7019381F30193FD859193FF3D
:1017800081913F01882309F453C1853239F493FDD7
:10179000859193FF81913F01853229F4B70190E053
:1017A0000E94980DE7CF912C212C312CFFE1F315ED
:1017B00038F08B3211F190F4803209F1833229F143
:1017C00037FC3CC020ED280F2A3050F536FE20C0F3
:1017D0008AE0989E200D1124922E06C08D3291F041
:1017E000803371F7689430F8F30193FD859193FF8E
:1017F00081913F018111DACF21C0689431F868945A
:1018000032F8F2CF689433F8EFCF689434F8ECCF25
:10181000EAE02E9E200D1124222E689435F8E4CFA4
:101820008E3229F436FC04C1689436F8DDCF8C364C
:1018300019F4689437F8D8CF8836B1F2982F9F7D85
:1018400095549330E0F08336A1F18337C1F18335AD
:1018500009F063C02801F2E04F0E511CF801C0806E
:10186000D180692D70E036FC02C06FEF7FEFC601BA
:101870000E94820D4C01689437F882010AC00C5F07
:101880001F4FFFE3F98388248394912C6501E8942A
:1018900037F833FE2DC0522C8114910471F5552078
:1018A00009F468CFB70180E290E00E94980D5A9445
:1018B000F6CFF801808189830E5F1F4FE4CF2801A6
:1018C000F2E04F0E511CF801C080D180692D70E00C
:1018D00036FC02C06FEF7FEFC6010E948D0D4C01F8
:1018E0008201D5CFB70180E290E00E94980D2A9442
:1018F0002814190409F0B0F7CECFF60137FC859112
:1019000037FE81916F01B70190E00E94980D511050
:101910005A94F1E08F1A9108BFCF843619F08936B6
:1019200009F077C0F80137FE6BC060817181828158
:1019300093810C5F1F4FF32DFF763F2E97FF09C059
:1019400090958095709561957F4F8F4F9F4F6894CC
:1019500037F82AE030E0A5010E94C80DC82ECA1849
:101960008C2C432C36FE0CC0E89440F8C91440F48B
:1019700034FE05C032FC03C0F32DFE7E4F2E892CB1
:1019800044FE95C0FE01EC0DF11D8081803309F00D
:1019900087C0242D297E422E842D8870582E43FC2A
:1019A00095C040FE8FC09C2C821418F42C0C922CF5
:1019B000981844FE91C0B70180E390E00E94980D12
:1019C00042FE09C088E790E041FE02C088E590E051
:1019D000B7010E94980DC91408F48AC0CA94D12C8A
:1019E0009FEFC91AD90ACA0CDB1CF60182916F015C
:1019F000B70190E00E94980DAC14BD04B1F74FCF31
:101A000060817181072E000C880B990B0E5F1F4FB0
:101A100092CFD32CE894D4F82AE030E0853739F11E
:101A2000232D297FD22E8F3601F148F48835A9F075
:101A3000F701868197812B96E2E10C94420E803764
:101A400049F08837A9F7D4FE02C06894D2F820E1A3
:101A500030E00DC06894D4F8F6CF34FE03C0822F76
:101A60008660D82E20E132E002C028E030E0F801A4
:101A7000D7FE0FC060817181828193810C5F1F4FFF
:101A8000A5010E94C80DC82ECA183D2CE89437F84D
:101A900067CF6081718190E080E00E5F1F4FF0CFD3
:101AA00042FC02C0839478CF8394839475CF842DB5
:101AB000867809F471CFF6CFB70180E290E00E94FA
:101AC000980D83948214C0F3512C73CF522C581864
:101AD000821408F46ECFF8CF842D867809F47BCF7A
:101AE0008BE241FE80E247FC8DE2B70190E071CFCE
:101AF000B70180E390E00E94980D9A946CCF8FEF2D
:101B00009FEF99CFFC010590615070400110D8F70C
:101B1000809590958E0F9F1F0895FC016150704035
:101B200001900110D8F7809590958E0F9F1F089512
:101B30000F931F93CF93DF93182F092FEB018B8106
:101B400081FD09C01FEF0FEF812F902FDF91CF9103
:101B50001F910F91089582FF14C02E813F818C81C7
:101B60009D81281739073CF4E881F981CF0101965E
:101B70009983888310838E819F8101969F838E83B2
:101B8000E3CFE885F985812F0995892BA1F3DACF79
:101B9000FA01AA27283051F1203181F1E8946F939E
:101BA0006E7F6E5F7F4F8F4F9F4FAF4FB1E03ED044
:101BB000B4E03CD0670F781F891F9A1FA11D680FE2
:101BC000791F8A1F911DA11D6A0F711D811D911D15
:101BD000A11D20D009F468943F912AE0269F11248A
:101BE0003019305D3193DEF6CF010895462F4770EE
:101BF000405D4193B3E00FD0C9F7F6CF462F4F7049
:101C0000405D4A3318F0495D31FD4052419302D0A6
:101C1000A9F7EACFB4E0A69597958795779567954C
:101C2000BA95C9F700976105710508959B01AC014C
:101C30000A2E06945795479537952795BA95C9F773
:101C4000620F731F841F951FA01D08952F923F924E
:101C50004F925F926F927F928F929F92AF92BF92BC
:101C6000CF92DF92EF92FF920F931F93CF93DF9368
:101C7000CDB7DEB7CA1BDB0B0FB6F894DEBF0FBEC5
:101C8000CDBF09942A88398848885F846E847D8412
:101C90008C849B84AA84B984C884DF80EE80FD8014
:101CA0000C811B81AA81B981CE0FD11D0FB6F8948A
:0E1CB000DEBF0FBECDBFED010895F894FFCF4B
:101CBE00000000003601A000CD008301FE00DC0014
:101CCE00F000000000009F047204EC0448046B0452
:101CDE00580449040D0A005254432069732073744A
:101CEE006F707065642E00526563656E743A2000E5
:101CFE005254432069732072756E6E696E67202888
:101D0E006661696C20626974206973207365742939
:101D1E002E005254432069732072756E6E696E6781
:101D2E002E0043757272656E746C793A20005320E2
:101D3E002D205B535D746172742052544300502009
:101D4E002D2073746F5B505D205254430046202D3E
:101D5E0020636C656172205B465D61756C74005426
:101D6E00202D20736574205B545D696D65004320E2
:101D7E002D20736574205B435D616C0044202D2023
:101D8E005B445D6973706C61792063757272656E08
:101D9E00742074696D650043686F6F7365206120F0
:101DAE006D656E75206974656D3A002D2D2D2D2D86
:101DBE002D2D2D2D2D2D2D2D2D2D2D2D2D2D2D2D45
:101DCE002D2D2D2D2D2D2D2D2D2D2D2D2D2D2D2D35
:101DDE002D2D2D00556E61626C6520746F2073740D
:101DEE00617274205254432064756520746F2049CB
:101DFE003243206572726F7220307800556E6162C8
:101E0E006C6520746F2073746F702052544320647D
:101E1E00756520746F20493243206572726F72208F
:101E2E00307800556E61626C6520746F20636C654E
:101E3E00617220525443206661756C74206475651E
:101E4E0020746F20493243206572726F7220307891
:101E5E0000456E746572206E65772074696D65201D
:101E6E00696E20666F726D61742028646F772069C9
:101E7E00732053756E2C204D6F6E2C202E2E2E201F
:101E8E00536174293A00797979792D6D6D2D6464D9
:101E9E002068683A6D6D3A737320646F7700556EE3
:101EAE0061626C6520746F207365742074696D6552
:101EBE002064756520746F20493243206572726FFD
:101ECE007220307800456E746572206E65772063DF
:101EDE00616C6962726174696F6E2076616C756592
:101EEE0020696E206865782028736B6970203078C1
:101EFE00293A00556E61626C6520746F20736574AB
:101F0E002063616C6962726174696F6E2076616CB8
:101F1E0075652064756520746F20493243206572A3
:101F2E00726F72203078002534752D253032752D64
:101F3E002530327520253032753A253032753A25E6
:101F4E003032752028444F573A2025752C204341B6
:101F5E004C3A20307825303278292E00556E616249
:101F6E006C6520746F206765742063757272656E80
:101F7E00742074696D652064756520746F20493214
:0C1F8E0043206572726F722030780000F2
:00000001FF
